S01400006D6D5F667033325F6475616C2E7372656397
S3151C00000000000000000000000000000000000000CE
S3151C00001000000000000000000000000000000000BE
S3151C00002000000000000000000000000000000000AE
S3151C000030000000000000000000000000000000009E
S30D1C000040000000000000000096
S3151C000048000000000000000000000000FFFFFFFF8A
S3151C000058FFFFFFFF0000000000000000000000007A
S315700000008140014181410142814201438143014462
S315700000108144014581450146814601478147014832
S31570000020814801498149014A814A014B814B014C02
S31570000030814C014D814D014E814E014F814FF962C8
S3157000004073A002308542FE0263D80200054597020E
S3157000005000AC23A9A2FADDBF9702000093820209C1
S315700000607390523073103000530000F0D30000F0DC
S31570000070530100F0D30100F0530200F0D30200F0F8
S31570000080530300F0D30300F0530400F0D30400F0E0
S31570000090530500F0D30500F0530600F0D30600F0C8
S315700000A0530700F0D30700F0530800F0D30800F0B0
S315700000B0530900F0D30900F0530A00F0D30A00F098
S315700000C0530B00F0D30B00F0530C00F0D30C00F080
S315700000D0530D00F0D30D00F0530E00F0D30E00F068
S315700000E0530F00F0D30F00F0970200009382820343
S315700000F07390523097610000938141A61782000079
S31570000100130242A6732540F189451316C500329233
S3157000011017C10000130101A532916F00B0520100A2
S315700001206D7106E40AE80EEC12F016F41AF81EFC6D
S31570000130A2E0A6E4AAE8AEECB2F0B6F4BAF8BEFC59
S3157000014042E146E54AE94EED52F156F55AF95EFD41
S31570000150E2E1E6E5EAE9EEEDF2F1F6F5FAF9FEFD31
S3157000016073252034F32510340A86EF00206E731041
S31570000170153489629B82028073A00230A26042614C
S31570000180E2610272A2724273E2730664A664466505
S31570000190E6650676A6764677E6770A68AA684A69B5
S315700001A0EA690A7AAA7A4A7BEA7B0E6CAE6C4E6D65
S315700001B0EE6D0E7EAE7E4E7FEE7F51617300203007
S315700001C09C612380A7009C6185079CE182800D71EC
S315700001D0A2EAA6E6CAE252FA56F65AF25EEE86EE41
S315700001E04EFE62EA66E66AE22A89AE843284B68A8E
S315700001F0130A5002FD5B175B0000130BAB1629A0A8
S3157000020031C1A6850504029903450400E31A45FF2A
S3157000021083461400130C14006287930C0002FD5978
S315700002207D5D014513065005A5459B87D6FD93F761
S31570000230F70F130417006361F6048A07DA979C4375
S31570000240DA978287F6605664B6641669F279527ADE
S31570000250B27A127BF26B526CB26C126D356182801F
S31570000260B68C834617002287130417009B87D6FD2A
S3157000027093F7F70FE373F6FCA68513055002029900
S31570000280628459B79B8906FD8346170022879B8730
S3157000029006FD1B88060063E5F502834617009B97EB
S315700002A02900BB8737019B971700BB8707019B887F
S315700002B006FD05079B8907FD1B880600E3FF15FDF4
S315700002C0E3550DF64E8DFD598DB78346170022877F
S315700002D0A9BFA6851305500202993DB783A90A00E6
S315700002E083461700A10A2287E1BF13050003A6857E
S315700002F00299A685130580070299414793868A005D
S3157000030083B70A00B68A33F6E702812C5400054C8F
S3157000031032C063EFE716B3D7E7029106E289052C80
S3157000032033F6E70223AEC6FEE3F7E7FE6359AC0188
S31570000330012D7D3DA68566850299E34CACFF8A0941
S315700003408A99930CC1FF254C03A50900A685636D98
S31570000350AC00F1191B0505030299E3873CEB03A575
S315700003600900A685E377ACFEF1191B0575050299A0
S31570000370E39C3CFD51BD8547138C8A0063C4A7007E
S31570000380630C051083B90A0063CF0910CE87E28A21
S31570000390294795BF4147854793868A00E3C2A7F6EA
S315700003A025F183E70A00B68AB9BF03BC0A00A10A21
S315700003B063040C10635EA0079307D002639FFC0270
S315700003C003450C0019CD63CB0906FD3963897901A4
S315700003D0A685050C029903450C007D3D6DF5E35528
S315700003E0A0E37D3DA685130500020299E31B0DFE71
S315700003F021BD176C0000130CECEA1B060D00E2879A
S31570000400B3063C016396090029A885076385D70062
S3157000041003C707007DFBB38787413B0DF6406359E1
S31570000420A001812C7D3DA68566850299E31C0DFE93
S3157000043003450C00E30A05DCE3D909F8A6850299A1
S3157000044003451C009B0CFDFF050C41C5E289A68582
S315700004508509029903C509003B0D3C413B0D9D0181
S315700004607DF5B5BF9347FDFFFD97B377FD008346D6
S3157000047017001B8D070022874DBB03A50A00A685B2
S31570000480A10A029951B3834617000525228771BBCD
S315700004908149E34FACE965B583A90A00F5B52147F3
S315700004A0DDBD2947CDBDA6851305D0020299E28A26
S315700004B0B3073041294781BD6356A0019307D00227
S315700004C0E399FCF2176C0000130CCCDD1305800267
S315700004D0DDBD668D29B7297122FE26FA4AF64EF2DF
S315700004E052EE56EA5AE613085002130F0002FD5FE9
S315700004F0930E5005138E019625438542130400030F
S31570000500930380079304D00209A829C7186185054B
S315700005102300F7001C6185071CE183C705001B8754
S315700005200700E39407FF03C9150093891500CE866B
S31570000530930A00027D577D5A81489B07D9FD93F730
S31570000540F70F9385160063ECFE028A07F2979C43B9
S31570000550F29782877274D27432799279726AD26A99
S31570000560326B31618280CA8A03C91600AE86938562
S3157000057016009B07D9FD93F7F70FE3F8FEFC1C6195
S31570000580CE85238007011C6185071CE179B71B079F
S3157000059009FD03C91600AE869B0709FD1B0B0900F2
S315700005A06364F30203C916009B172700B99F9B97D4
S315700005B01700BB8767019B0509FD85061B8707FD2D
S315700005C01B0B0900E370B3FEE3590AF63A8A7D57AE
S315700005D0ADB703C91600AE868DB71C6123800701BF
S315700005E01C6185071CE115BF184203C91600210658
S315700005F0AE86D9BF1C6141491307860023808700E8
S315700006001C619386170014E1A38077001C6185072F
S315700006101CE114623A8633F7260393094100854834
S315700006203AC063EE2619B3D6260391094687852804
S3157000063033FB260323AE69FFE3F726FF63DC48012D
S315700006409B060A00238057011C61FD3685071CE155
S31570000650E3CAD8FE0A070A979308C1FF19A89B86B2
S3157000066006032380D7001C61711785071CE1E3869A
S31570000670E8EA1443E375D3FE9B867605DDB7130768
S31570000680860063C412016380081414621C6163C21D
S3157000069006143A86294941B703C916008528AE86DD
S315700006A069BD41491C6113078600E3C412F7E392E2
S315700006B008F6836606003A86B9BF1462210663841B
S315700006C006126354400963969A0483C7060085C769
S315700006D0634307087D37630EF70183380500850687
S315700006E07D3A2380F8001C6185071CE183C70600EC
S315700006F0E5F3E35440E31C612380E7011C617D3A16
S3157000070085071CE1E31A0AFE09BD97660000938609
S3157000071066B99B090A00B6873389E60009E729A8F6
S3157000072085076386270183C80700E39B08FE958FBC
S315700007303B8AF940635B40011C61238057011C6151
S315700007407D3A85071CE1E31A0AFE83C70600E38635
S3157000075007DCE35107F81861138916009B09FAFF45
S315700007602300F7001C6185071CE183C816006387A8
S3157000077008084A87238017011C610507BB06E940F4
S3157000078085071CE1834807003B8A3601E39408FE1F
S31570000790E34340F759B39347FAFFFD97B377FA00EF
S315700007A003C916001B8A0700AE8641BB18421C613E
S315700007B021062380E7001C6185071CE1B9BB014750
S315700007C0E3C042E941BD1442D1B52149E1BD294991
S315700007D0D1BD238097001C61B306D0403A86850749
S315700007E01CE129490DBD63544001E3909AF2976666
S315700007F00000938626AB93078002D9BD4E8AE34CE0
S3157000080040EF21BB732700B097670000938787B3CB
S3157000081001E9946317660000130646A990EB158FDD
S3157000082098E3732720B001E99467176600001306F2
S3157000083066A890EF158F98E782809317150093E757
S31570000840170017F7FFAB233FF77A01A085679387E9
S3157000085037A717F7FFAB2337F77A01A0411106E4E4
S31570000860EFF0BFFD9307D01017F7FFAB233CF77877
S3157000087001A08347050059719306F10393F606FCB0
S31570000880B9C3AA8703C7170085076DFF898F13073A
S31570000890000498E2054798E688EA9CEE0F00F00F90
S315700008A017F7FFAB1307077A97F7FFAB23BCD7741D
S315700008B01C63FDDF97F7FFAB23B607780F00F00FC9
S315700008C09C62656182808147D9B701C573005010FB
S315700008D0F5BF828075719375F5009306F105A5478E
S315700008E093F606FC2E861307700563E4B7001307AC
S315700008F00003319F93574500A30BE10013F8F700EF
S31570000900A54542871306000363EB0535319F935760
S315700009108500230BE10013F8F700A54542871306FF
S31570000920000363EE0531319F9357C500A30AE100BA
S3157000093013F8F700A54542871306000363E1052FF8
S31570000940319F93570501230AE10013F8F700A54577
S3157000095042871306000363E4052B319F93574501C5
S31570000960A309E10013F8F700A545428713060003B3
S3157000097063E70527319F935785012309E10093F5B6
S31570000980F7002546AE8713070003636CB622B99F3E
S31570000990A308F100A5459B57C5013E8713060003C2
S315700009A063E1F520319F935705022308E10013F8A0
S315700009B0F700A54542871306000363E4051D319FC2
S315700009C093574502A307E10013F8F700A545428740
S315700009D01306000363E70519319F935785022307B2
S315700009E0E10013F8F700A54542871306000363EA92
S315700009F00515319F9357C502A306E10013F8F7005A
S31570000A00A54542871306000363ED0511319F935781
S31570000A1005032306E10013F8F700A5454287130680
S31570000A20000363E0050F319F93574503A305E1006B
S31570000A3013F8F700A54542871306000363E3050B19
S31570000A40319F935785032305E10093F5F7002546FB
S31570000A50AE87130700036368B606B99FA304F10057
S31570000A601356C5032547328593070003636AC70487
S31570000A703D9D30002304A100230C0100B28703C7FB
S31570000A80170085076DFF1307000498E2054798E67F
S31570000A9090EA918F9CEE0F00F00F17F7FFAB1307DC
S31570000AA0675A97F7FFAB23BFD7541C63FDDF97F7E1
S31570000AB0FFAB23B907580F00F00F9C624961828023
S31570000AC09307700575B713077005B99FA304F100F6
S31570000AD01356C5032547328593070003E37AC7F893
S31570000AE0C5B713067005319F935785032305E1003B
S31570000AF093F5F7002546AE8713070003E37FB6F438
S31570000B00D9B713067005319F93574503A305E100C6
S31570000B1013F8F700A545428713060003E3F205F3C1
S31570000B20C9B713067005319F935705032306E10075
S31570000B3013F8F700A545428713060003E3F505EFA2
S31570000B40C9B713067005319F9357C502A306E10016
S31570000B5013F8F700A545428713060003E3F805EB83
S31570000B60C9B713067005319F935785022307E100B5
S31570000B7013F8F700A545428713060003E3FB05E764
S31570000B80C9B713067005319F93574502A307E10055
S31570000B9013F8F700A545428713060003E3FE05E345
S31570000BA0C9B713067005319F935705022308E100F4
S31570000BB013F8F700A545428713060003E3F105E134
S31570000BC0C9B713077005B99FA308F100A5459B57D0
S31570000BD0C5013E8713060003E3F6F5DCD9B71306A5
S31570000BE07005319F935785012309E10093F5F7004E
S31570000BF02546AE8713070003E37BB6D8D9B713062D
S31570000C007005319F93574501A309E10013F8F7006A
S31570000C10A545428713060003E3FE05D5C9B713063B
S31570000C207005319F93570501230AE10013F8F70009
S31570000C30A545428713060003E3F105D3C9B713062A
S31570000C407005319F9357C500A30AE10013F8F700AA
S31570000C50A545428713060003E3F405CFC9B713060B
S31570000C607005319F93578500230BE10013F8F70049
S31570000C70A545428713060003E3F705CBC9B71D7177
S31570000C80130381022A8E2EF432F836FC17250000E3
S31570000C90130545009A867286814506ECBAE0BEE475
S31570000CA0C2E8C6EC1AE4EFF08FD2E2600145256126
S31570000CB082801D711303010322F02AE432F82A841C
S31570000CC01A86280006F436FCBAE0BEE4C2E8C6EC22
S31570000CD01AECEFF05F80226523000500A270019D7B
S31570000CE0027425618280B368B500B3E7C8009D8B36
S31570000CF0B306C500F1C36378D50E13881500B30724
S31570000D0005411307F6FF93B777001337870013472C
S31570000D10170093C71700F98F93F7F70F2A87C5CB7C
S31570000D2093F878006395080A937886FFAE87AE9835
S31570000D3003B80700A1072107233C07FFE39A17FFB3
S31570000D40137786FFBA95B307E500630DE60803C609
S31570000D500500138717002380C7006375D70803C67D
S31570000D60150013872700A380C700637DD70603C6C7
S31570000D702500138737002381C7006375D70603C61E
S31570000D80350013874700A381C700637DD70403C668
S31570000D904500138757002382C7006375D70403C6BF
S31570000DA0550013876700A382C700637DD70203C708
S31570000DB065002383E70082806376D502AA879861EF
S31570000DC0A107A10523BCE7FEE3EBD7FE8280B295AF
S31570000DD0AA8711A005080347F8FF8507A38FE7FECA
S31570000DE0E31AB8FE828082804111B367C50022E0A3
S31570000DF006E49D8B2A84B306C50081CF6376D50041
S31570000E0093F5F50FEFF05FFEA26022850264410153
S31570000E10828093F5F50F9397850033E7F500931766
S31570000E2007015D8F931707025D8FE37FD5FCAA8755
S31570000E30A10723BCE7FEE3EDD7FEA260228502641C
S31570000E4041018280717126ED4AE99744000083B4AE
S31570000E50644E174900000339694E22F152E1338915
S31570000E6024412A844A862E8A1285977500009385B6
S31570000E7065CF4EE5D6FC06F5928AEFF0DFE61746AB
S31570000E8000000336264C9309F103814533852A0108
S31570000E90058E93F909FCEFF03FF535C02285D285B2
S31570000EA0EF10D00381450145EF40C04697540000CE
S31570000EB09384444994602A8495E6946481E62285F5
S31570000EC0EFF0BF974E89906C4A85975500009385D1
S31570000ED0653FEFF01FDE2A99E38329FF4E85EFF019
S31570000EE05F99F1BF9068975500009385A53D4E8533
S31570000EF0EFF03FDC94643389A900F9DEE9B7B747B0
S31570000F00101A0D47D8C3D8C79305200A0145EF10AC
S31570000F10D01E05473706000C18D6B726000C1306E8
S31570000F20004023A0060823A0C618B7474010B7068E
S31570000F30008094C3D8D39DB78347050089CBAA8711
S31570000F4003C7170085076DFF3385A740828001456B
S31570000F508280B306B500AA8789E529A885076388C4
S31570000F60F60003C707007DFB3385A7408280338573
S31570000F70A640828001458280834705008505050568
S31570000F8003C7F5FF99C7E389E7FE1B850700199D1F
S31570000F9082800145EDBFAA8703C7050085078505D1
S31570000FA0A38FE7FE75FB8280834605001307000258
S31570000FB0AA876397E60083C617008507E38DE6FE6A
S31570000FC01307D0026380E6041307B0026385E60256
S31570000FD081459DC601458507131725001B8606FDAD
S31570000FE083C607002A9706073305E600EDF691C912
S31570000FF03305A040828083C6170081458507F9FABC
S315700010000145828083C6170085458507E1F601454F
S31570001010CDBF8547AF27F5008280411122E006E4F7
S3157000102017F4FFAB1304840219CD1C40FDDF026474
S31570001030A26097F7FFAB23AB070017F5FFAB13055D
S3157000104025014101F9B72285EFF0BFFC5C40FDDF59
S31570001050A260026497F7FFAB23AC07FE4101828062
S31570001060FD47014763E5A702A1ED3756101A5C42AA
S3157000107005473B17A700D98F81275CC21842B75620
S31570001080101A012718C29C426393E702828085E595
S31570001090B757101AD85F01358546BB96A600558F8F
S315700010A00127D8DF985F93868703012798DF9C42D4
S315700010B0E39FE7FE828085476384F5028146C5BF5C
S315700010C08547E39DF5FEB757101AD8438546BB96FC
S315700010D0A600558F0127D8C398C3B756101AC1BF3B
S315700010E0B756101AD85E0135BB97A7005D8F0127DA
S315700010F0D8DE98DE938686035DBF138781EB938770
S3157000110081AB975500009385E525175600001306A9
S315700011106665976600009386E6A43A85872207007F
S3157000112007A247008721470007A18700872087000D
S3157000113007A0C7000725C70087A50701072607016F
S3157000114087A647010727470187A7870107A30700D7
S315700011502720560027A245002722360027A42500FF
S315700011602724160027A605002726A60027A8B5005F
S315700011702728C60027AAD500272AE60027ACF5003F
S3157000118027A0650023A0060023A2060023A406005C
S3157000119023A6060023A8060023AA060007238701B4
S315700011A007A587028725870207A6C7028726C70273
S315700011B007A707038727070387A2C7010722C70167
S315700011C087A107020721070287A047020720470267
S315700011D027A4A5022724B60227A6C5022726D6026B
S315700011E027A8E5022728F602272C660023AC0600FE
S315700011F027AE5500272E460023AE060027A03502DF
S315700012002720260223A0060227A2150227220602FD
S3157000121023A2060223A4060223A6060223A8060218
S3157000122007A547038725470307A6870387268703EE
S3157000123007A7C7038727C70327AAA502272AB602C7
S3157000124023AA060227ACC502272CD60223AC0602B7
S3157000125027AEE502272EF60223AE06029387070411
S31570001260938505041307070413060604938606047C
S31570001270E316F5EA8280138781EB938781AB9765D6
S315700012800000938525CE176600001306A60D976697
S3157000129000009386264D3A858722070007A24700ED
S315700012A08721470007A187008720870007A0C7000E
S315700012B00725C70087A507010726070187A64701E7
S315700012C00727470187A7870107A30700272056002E
S315700012D027A245002722360027A4250027241600BA
S315700012E027A605002726A60027A8B5002728C6002A
S315700012F027AAD500272AE60027ACF50027A06500A7
S3157000130023A0060023A2060023A4060023A6060037
S3157000131023A8060023AA06000723870107A58702CC
S315700013208725870207A6C7028726C70207A707036E
S315700013308727070387A2C7010722C70187A107026C
S315700013400721070287A047020720470227A4A502A4
S315700013502724B60227A6C5022726D60227A8E502A5
S315700013602728F602272C660023AC060027AE550008
S31570001370272E460023AE060027A035022720260218
S3157000138023A0060227A215022722060223A206021E
S3157000139023A4060223A6060223A8060207A547036E
S315700013A08725470307A687038726870307A7C703EB
S315700013B08727C70327AAA502272AB60223AA0602E9
S315700013C027ACC502272CD60223AC060227AEE5024F
S315700013D0272EF60223AE060293870704938505042B
S315700013E0130707041306060493860604E316F5EA44
S315700013F082805D71A2E026FC4AF84EF452F056ECFB
S3157000140022A486E4975400009384C4751384812BB8
S31570001410814901499747000007A447F4175A00000D
S31570001420130A4AEBC14AA5AA07A7440087264400B7
S31570001430D377D708D3A7F720D317F4A06399071AE1
S3157000144007A7840087268400D377D708D3A7F72009
S31570001450D317F4A06399071C07A7C4008726C40096
S31570001460D377D708D3A7F720D317F4A06399071EAD
S3157000147007A7040187260401D377D708D3A7F720D7
S31570001480D317F4A06399072007A744018726440160
S31570001490D377D708D3A7F720D317F4A06399072279
S315700014A007A7840187268401D377D708D3A7F720A7
S315700014B0D317F4A06399072407A7C4018726C4012C
S315700014C0D377D708D3A7F720D317F4A06399072645
S315700014D007A7040287260402D377D708D3A7F72075
S315700014E0D317F4A06399072807A7440287264402F6
S315700014F0D377D708D3A7F720D317F4A06399072A11
S3157000150007A7840287268402D377D708D3A7F72044
S31570001510D317F4A06399072C07A7C4028726C402C1
S31570001520D377D708D3A7F720D317F4A06399072EDC
S3157000153007A7040387260403D377D708D3A7F72012
S31570001540D317F4A06399073007A74403872644038B
S31570001550D377D708D3A7F720D317F4A063990732A8
S3157000156007A7840387268403D377D708D3A7F720E2
S31570001570D317F4A06399073407A7C4038726C40357
S31570001580D377D708D3A7F720D317F4A06399073674
S31570001590852993840404130404046389593907A7BD
S315700015A0040087260400D377D708D3A7F720D3176C
S315700015B0F4A0E38B07E6D38706420146CE855387B0
S315700015C007E2D307074252850529D38607E2EF1053
S315700015D0C06DEF10003A07A7440087264400D37702
S315700015E0D708D3A7F720D317F4A0E38B07E4D387E4
S315700015F006420546CE85538707E2D30707425285D2
S315700016000529D38607E2EF10406AEF10803607A7E8
S31570001610840087268400D377D708D3A7F720D317FB
S31570001620F4A0E38B07E2D38706420946CE8553873B
S3157000163007E2D307074252850529D38607E2EF10E2
S31570001640C066EF10003307A7C4008726C400D3779F
S31570001650D708D3A7F720D317F4A0E38B07E0D38777
S3157000166006420D46CE85538707E2D3070742528559
S315700016700529D38607E2EF104063EF10802F07A786
S31570001680040187260401D377D708D3A7F720D31789
S31570001690F4A0E38B07DED38706421146CE855387C7
S315700016A007E2D307074252850529D38607E2EF1072
S315700016B0C05FEF10002C07A7440187264401D3773B
S315700016C0D708D3A7F720D317F4A0E38B07DCD3870B
S315700016D006421546CE85538707E2D30707425285E1
S315700016E00529D38607E2EF10405CEF10802807A724
S315700016F0840187268401D377D708D3A7F720D31719
S31570001700F4A0E38B07DAD38706421946CE85538752
S3157000171007E2D307074252850529D38607E2EF1001
S31570001720C058EF10002507A7C4018726C401D377D8
S31570001730D708D3A7F720D317F4A0E38B07D8D3879E
S3157000174006421D46CE85538707E2D3070742528568
S315700017500529D38607E2EF104055EF10802107A7C1
S31570001760040287260402D377D708D3A7F720D317A6
S31570001770F4A0E38B07D6D38706422146CE855387DE
S3157000178007E2D307074252850529D38607E2EF1091
S31570001790C051EF10001E07A7440287264402D37774
S315700017A0D708D3A7F720D317F4A0E38B07D4D38732
S315700017B006422546CE85538707E2D30707425285F0
S315700017C00529D38607E2EF10404EEF10801A07A75F
S315700017D0840287268402D377D708D3A7F720D31736
S315700017E0F4A0E38B07D2D38706422946CE8553876A
S315700017F007E2D307074252850529D38607E2EF1021
S31570001800C04AEF10001707A7C4028726C402D37711
S31570001810D708D3A7F720D317F4A0E38B07D0D387C5
S3157000182006422D46CE85538707E2D3070742528577
S315700018300529D38607E2EF104047EF10801307A7FC
S31570001840040387260403D377D708D3A7F720D317C3
S31570001850F4A0E38B07CED38706423146CE855387F5
S3157000186007E2D307074252850529D38607E2EF10B0
S31570001870C043EF10001007A7440387264403D377AD
S31570001880D708D3A7F720D317F4A0E38B07CCD38759
S3157000189006423546CE85538707E2D30707425285FF
S315700018A00529D38607E2EF104040EF10800C07A79A
S315700018B0840387268403D377D708D3A7F720D31753
S315700018C0F4A0E38B07CAD38706423946CE85538781
S315700018D007E2D307074252850529D38607E2EF1040
S315700018E0C03CEF10000907A7C4038726C403D3774B
S315700018F0D708D3A7F720D317F4A0E38B07C8D387ED
S315700019000642CE853D46538707E2D3070742528586
S315700019108529D38607E2052993840404EF10E038FD
S31570001920EF10200513040404E39B59C7A6600664F0
S31570001930E274A279027AE26A22244A854279616166
S3157000194082805D71A2E026FC4AF84EF452F056ECA5
S3157000195022A486E4975400009384C4201384812BB8
S31570001960014981499747000007A4479F175A00000D
S31570001970130A4A96C14AA5AA07A7440087264400B7
S31570001980D377D708D3A7F720D317F4A06399071A8C
S3157000199007A7840087268400D377D708D3A7F720B4
S315700019A0D317F4A06399071C07A7C4008726C40041
S315700019B0D377D708D3A7F720D317F4A06399071E58
S315700019C007A7040187260401D377D708D3A7F72082
S315700019D0D317F4A06399072007A74401872644010B
S315700019E0D377D708D3A7F720D317F4A06399072224
S315700019F007A7840187268401D377D708D3A7F72052
S31570001A00D317F4A06399072407A7C4018726C401D6
S31570001A10D377D708D3A7F720D317F4A063990726EF
S31570001A2007A7040287260402D377D708D3A7F7201F
S31570001A30D317F4A06399072807A7440287264402A0
S31570001A40D377D708D3A7F720D317F4A06399072ABB
S31570001A5007A7840287268402D377D708D3A7F720EF
S31570001A60D317F4A06399072C07A7C4028726C4026C
S31570001A70D377D708D3A7F720D317F4A06399072E87
S31570001A8007A7040387260403D377D708D3A7F720BD
S31570001A90D317F4A06399073007A744038726440336
S31570001AA0D377D708D3A7F720D317F4A06399073253
S31570001AB007A7840387268403D377D708D3A7F7208D
S31570001AC0D317F4A06399073407A7C4038726C40302
S31570001AD0D377D708D3A7F720D317F4A0639907361F
S31570001AE0852993840404130404046389593907A768
S31570001AF0040087260400D377D708D3A7F720D31717
S31570001B00F4A0E38B07E6D38706420146CE8553875A
S31570001B1007E2D307074252850529D38607E2EF10FD
S31570001B20C018EF00106507A7440087264400D377D6
S31570001B30D708D3A7F720D317F4A0E38B07E4D3878E
S31570001B4006420546CE85538707E2D307074252857C
S31570001B500529D38607E2EF104015EF00906107A7BD
S31570001B60840087268400D377D708D3A7F720D317A6
S31570001B70F4A0E38B07E2D38706420946CE855387E6
S31570001B8007E2D307074252850529D38607E2EF108D
S31570001B90C011EF00105E07A7C4008726C400D37774
S31570001BA0D708D3A7F720D317F4A0E38B07E0D38722
S31570001BB006420D46CE85538707E2D3070742528504
S31570001BC00529D38607E2EF10400EEF00905A07A75B
S31570001BD0040187260401D377D708D3A7F720D31734
S31570001BE0F4A0E38B07DED38706421146CE85538772
S31570001BF007E2D307074252850529D38607E2EF101D
S31570001C00C00AEF00105707A7440187264401D3770F
S31570001C10D708D3A7F720D317F4A0E38B07DCD387B5
S31570001C2006421546CE85538707E2D307074252858B
S31570001C300529D38607E2EF104007EF00905307A7F8
S31570001C40840187268401D377D708D3A7F720D317C3
S31570001C50F4A0E38B07DAD38706421946CE855387FD
S31570001C6007E2D307074252850529D38607E2EF10AC
S31570001C70C003EF00105007A7C4018726C401D377AD
S31570001C80D708D3A7F720D317F4A0E38B07D8D38749
S31570001C9006421D46CE85538707E2D3070742528513
S31570001CA00529D38607E2EF104000EF00904C07A796
S31570001CB0040287260402D377D708D3A7F720D31751
S31570001CC0F4A0E38B07D6D38706422146CE85538789
S31570001CD007E2D307074252850529D38607E2EF004C
S31570001CE0D07CEF00104907A7440287264402D377B9
S31570001CF0D708D3A7F720D317F4A0E38B07D4D387DD
S31570001D0006422546CE85538707E2D307074252859A
S31570001D100529D38607E2EF005079EF00904507A7B3
S31570001D20840287268402D377D708D3A7F720D317E0
S31570001D30F4A0E38B07D2D38706422946CE85538714
S31570001D4007E2D307074252850529D38607E2EF00DB
S31570001D50D075EF00104207A7C4028726C402D37756
S31570001D60D708D3A7F720D317F4A0E38B07D0D38770
S31570001D7006422D46CE85538707E2D3070742528522
S31570001D800529D38607E2EF005072EF00903E07A751
S31570001D90040387260403D377D708D3A7F720D3176E
S31570001DA0F4A0E38B07CED38706423146CE855387A0
S31570001DB007E2D307074252850529D38607E2EF006B
S31570001DC0D06EEF00103B07A7440387264403D377F2
S31570001DD0D708D3A7F720D317F4A0E38B07CCD38704
S31570001DE006423546CE85538707E2D30707425285AA
S31570001DF00529D38607E2EF00506BEF00903707A7EF
S31570001E00840387268403D377D708D3A7F720D317FD
S31570001E10F4A0E38B07CAD38706423946CE8553872B
S31570001E2007E2D307074252850529D38607E2EF00FA
S31570001E30D067EF00103407A7C4038726C403D3778F
S31570001E40D708D3A7F720D317F4A0E38B07C8D38797
S31570001E500642CE853D46538707E2D3070742528531
S31570001E608529D38607E2052993840404EF00F0637D
S31570001E70EF00303013040404E39B59C7A660066470
S31570001E80E274A279027AE26A22244A854279616111
S31570001E9082807571CAF841493B49B902A6FC22E1B4
S31570001EA006E5CEF4D2F0D6ECDAE8A2A4A6A04ABC37
S31570001EB04EB852B456B05AAC5EA862A466A02A84D4
S31570001EC0BB0425033B09990063080514EFF0EF94F2
S31570001ED09749000093890949175A0000130A8AC85E
S31570001EE063F9247F975600009386C68B93970402F6
S31570001EF013D7A701B387E90087AC070007AC470083
S31570001F0087AB870007ABC70087AA070107AA4701F7
S31570001F1087A9870107A9C70187A4070207A44702F3
S31570001F2087AF870207AFC70287AE070307AE4703BF
S31570001F3087A8870307A8C703529797570000938708
S31570001F40678207A7070487A7070007260700537746
S31570001F50EC1087A3070807A3070C87A2071007A230
S31570001F600714C3F7FC7087A1071807A1071C87A081
S31570001F70072007A00724D3F7C70007A5072887A55A
S31570001F80072C07A6073087A60734C3F37B7807A705
S31570001F90073887A7073C1107910743736B38C3F25D
S31570001FA05A3043724A28C3F1392043712918C3F055
S31570001FB014104370040843F5AF00C375BF5043F661
S31570001FC0CE58C376DE6043F7E868C377F870272E7D
S31570001FD0F7FEE398F6F68524E3EA24F12285EFF01E
S31570001FE0CF8381446301041C2285EFF00F83AA60BE
S31570001FF00A644679A679067AE66A466B26248624AA
S315700020006239C239223A823A622BC22B222C822C36
S315700020102685E674496182809749000093898934E0
S31570002020138781EB175A0000130ACAB3938781ABE3
S31570002030CE85174600001306E672D2863A85872249
S31570002040070007A247008721470007A1870087205E
S31570002050870007A0C7000725C70087A507010726C1
S31570002060070187A647010727470187A7870107A3A7
S3157000207007002720560027A245002722360027A4EE
S3157000208025002724160027A605002726A60027A8C0
S31570002090B5002728C60027AAD500272AE60027AC50
S315700020A0F50027A0650023A0060023A2060023A43E
S315700020B0060023A6060023A8060023AA0600072307
S315700020C0870107A587028725870207A6C702872685
S315700020D0C70207A707038727070387A2C701072237
S315700020E0C70187A107020721070287A047020720B9
S315700020F0470227A4A5022724B60227A6C5022726CB
S31570002100D60227A8E5022728F602272C660023ACFC
S31570002110060027AE5500272E460023AE060027A0E0
S3157000212035022720260223A0060227A2150227229F
S31570002130060223A2060223A4060223A6060223A8E9
S31570002140060207A547038725470307A68703872641
S31570002150870307A7C7038727C70327AAA502272AC6
S31570002160B60223AA060227ACC502272CD60223ACD8
S31570002170060227AEE502272EF60223AE06029387E5
S31570002180070493850504130707041306060493864C
S315700021900604E316F5EA0145EFE03FE8E3E424D5EB
S315700021A00145EFE09FE7975900009389A99B138932
S315700021B0812B8144014A9737000007A4271A974A52
S315700021C00000938A2A11414BA5AA07A749008726C2
S315700021D04900D377D708D3A7F720D317F4A063990C
S315700021E0071A07A7890087268900D377D708D3A748
S315700021F0F720D317F4A06399071C07A7C900872691
S31570002200C900D377D708D3A7F720D317F4A063995B
S31570002210071E07A7090187260901D377D708D3A711
S31570002220F720D317F4A06399072007A749018726DB
S315700022304901D377D708D3A7F720D317F4A06399AA
S31570002240072207A7890187268901D377D708D3A7DD
S31570002250F720D317F4A06399072407A7C901872627
S31570002260C901D377D708D3A7F720D317F4A06399FA
S31570002270072607A7090287260902D377D708D3A7A7
S31570002280F720D317F4A06399072807A74902872672
S315700022904902D377D708D3A7F720D317F4A0639949
S315700022A0072A07A7890287268902D377D708D3A773
S315700022B0F720D317F4A06399072C07A7C9028726BE
S315700022C0C902D377D708D3A7F720D317F4A0639999
S315700022D0072E07A7090387260903D377D708D3A73D
S315700022E0F720D317F4A06399073007A74903872609
S315700022F04903D377D708D3A7F720D317F4A06399E8
S31570002300073207A7890387268903D377D708D3A708
S31570002310F720D317F4A06399073407A7C903872654
S31570002320C903D377D708D3A7F720D317F4A0639937
S315700023300736052A938909041309090463096A395A
S3157000234007A7090087260900D377D708D3A7F720F0
S31570002350D317F4A0E38B07E6D38706420146D285EE
S31570002360538707E2D307074256858524D38607E24B
S31570002370EF00B013EF00E05F07A74900872649001A
S31570002380D377D708D3A7F720D317F4A0E38B07E446
S31570002390D38706420546D285538707E2D30707429D
S315700023A056858524D38607E2EF003010EF00605C17
S315700023B007A7890087268900D377D708D3A7F72080
S315700023C0D317F4A0E38B07E2D38706420946D2857A
S315700023D0538707E2D307074256858524D38607E2DB
S315700023E0EF00B00CEF00E05807A7C9008726C900B8
S315700023F0D377D708D3A7F720D317F4A0E38B07E0DA
S31570002400D38706420D46D285538707E2D307074224
S3157000241056858524D38607E2EF003009EF006055B4
S3157000242007A7090187260901D377D708D3A7F7200D
S31570002430D317F4A0E38B07DED38706421146D28505
S31570002440538707E2D307074256858524D38607E26A
S31570002450EF00B005EF00E05107A749018726490153
S31570002460D377D708D3A7F720D317F4A0E38B07DC6D
S31570002470D38706421546D285538707E2D3070742AC
S3157000248056858524D38607E2EF003002EF00604E52
S3157000249007A7890187268901D377D708D3A7F7209D
S315700024A0D317F4A0E38B07DAD38706421946D28591
S315700024B0538707E2D307074256858524D38607E2FA
S315700024C0EF00A07EEF00E04A07A7C9018726C90181
S315700024D0D377D708D3A7F720D317F4A0E38B07D801
S315700024E0D38706421D46D285538707E2D307074234
S315700024F056858524D38607E2EF00207BEF00604780
S3157000250007A7090287260902D377D708D3A7F7202A
S31570002510D317F4A0E38B07D6D38706422146D2851C
S31570002520538707E2D307074256858524D38607E289
S31570002530EF00A077EF00E04307A74902872649021C
S31570002540D377D708D3A7F720D317F4A0E38B07D494
S31570002550D38706422546D285538707E2D3070742BB
S3157000256056858524D38607E2EF002074EF0060401D
S3157000257007A7890287268902D377D708D3A7F720BA
S31570002580D317F4A0E38B07D2D38706422946D285A8
S31570002590538707E2D307074256858524D38607E219
S315700025A0EF00A070EF00E03C07A7C9028726C902BA
S315700025B0D377D708D3A7F720D317F4A0E38B07D028
S315700025C0D38706422D46D285538707E2D307074243
S315700025D056858524D38607E2EF00206DEF006039BB
S315700025E007A7090387260903D377D708D3A7F72048
S315700025F0D317F4A0E38B07CED38706423146D28534
S31570002600538707E2D307074256858524D38607E2A8
S31570002610EF00A069EF00E03507A749038726490355
S31570002620D377D708D3A7F720D317F4A0E38B07CCBB
S31570002630D38706423546D285538707E2D3070742CA
S3157000264056858524D38607E2EF002066EF00603258
S3157000265007A7890387268903D377D708D3A7F720D7
S31570002660D317F4A0E38B07CAD38706423946D285BF
S31570002670538707E2D307074256858524D38607E238
S31570002680EF00A062EF00E02E07A7C9038726C903F3
S31570002690D377D708D3A7F720D317F4A0E38B07C84F
S315700026A0D3870642D2853D46538707E2D307074252
S315700026B05685052AD38607E2852493890904EF0097
S315700026C0C05EEF00002B13090904E31B6AC781245F
S315700026D021BA2285EFE07F94814439B26FF06FFBA7
S315700026E009E5B767101ACCC382807D558280B767BB
S315700026F0101A9127A99F8217819388438280B767A2
S31570002700101A23A207008280B767101A0547D8C32C
S315700027108280B767101AD847C84B399D8280B767D1
S31570002720101A9847884B399D8280ED450145F1A274
S31570002730B707101A945B3706F8FFD8537D16F18EDB
S3157000274094DB13673700D8D3828037070200B70748
S31570002750101A13072720D8D737C725001307073550
S3157000276098CB454798DB37170340130737A7D8C769
S3157000277005671307171198DB82801B983500BB0518
S31570002780B8409B9525002D9D131805029B054500A5
S31570002790135808029358064223201801139805020D
S315700027A09B05850013580802012682152320C80050
S315700027B081911B06C50013D8064223A00501931507
S315700027C00602819181261B06050194C102169B069D
S315700027D04501935507420192821661250CC281927A
S315700027E00127021598C201911CC18280B72720105B
S315700027F01B07050023A0E780019523A2A78023A4C9
S31570002800B78023A6078023A8C78003A50782828086
S31570002810B727201023A0A78023A207801B87050057
S3157000282023A4E780819523A6B78023A8C78003A534
S31570002830078282803727201083278782E37EF5FE02
S315700028408280B707001823A007000547D8C3828087
S31570002850B7070018884382809B0705009CC10195C5
S31570002860C8C182809B0705009CC50195C8C582803A
S315700028705C4108418217021501915D8D82805C452D
S3157000288008458217021501915D8D82805C49084961
S315700028908217021501915D8D82805C4D084D8217FD
S315700028A0021501915D8D82805C5108518217021567
S315700028B001915D8D82805C550855821702150191D4
S315700028C05D8D82805C5908598217021501915D8D64
S315700028D082805C5D085D8217021501915D8D828034
S315700028E023200500232205008280FD571CC15CC190
S315700028F08280FD571CC55CC58280B70700401307F0
S315700029003008D8C713D78500D8C393F5F50F8CC395
S315700029101307700A98C70D47D8C7D8431377070FA0
S3157000292013672700D8C382803707004085C15C4B88
S3157000293093F70702EDDF9306050483470500050547
S31570002940FD351CC3E304D5FEEDF98280828037071E
S3157000295000405C4B858BF5DF08431375F50F82805D
S31570002960370700405C4B93F70702EDDF012508C37C
S315700029708280370700405C4B93F70704EDDF828057
S315700029803767101A85471CC3232007001CC3B70777
S315700029902010A8C3E8C3A8C7E8C7A8CBE8CBA8CFC0
S315700029A0E8CF8D4614C39D4614C31307F00F98C71E
S315700029B082801D71A6E456F486ECA2E8CAE04EFC4D
S315700029C052F85AF0B684BA8A6309051C32891B0814
S315700029D0050001C629476381E520A30F0100414721
S315700029E001496382E50E37A699199309F1011735E6
S315700029F000001305A5921B069699BB05C8021B57C6
S31570002A0018009B572800B99F9BD64700B59F9BD649
S31570002A1087009B583800B59F9BD60701B99DBB852B
S31570002A201501B59F9BD5C5019BD73700AA9503C4E1
S31570002A3005009B962700BD9E19289B9616001B04C1
S31570002A4004033B08D8401374F40F1B584800A38F37
S31570002A5089FE3B08F8004E87FD19E31008FA630EED
S31570002A600900638E041413F52A00AA8563060518F7
S31570002A701305D002EFF0DFEEFD3463559016268A0B
S31570002A8093F52A006317041C130B000299C1130BEC
S31570002A90000393FA1A00639B0A16D2846356401F8A
S31570002AA0FD345A85EFF0DFEBE5FC51ECBB042A01EF
S31570002AB0E66046640669E279427AA27A027B2685E6
S31570002AC0A664256182801307F10125469B8667FC03
S31570002AD09377F8003B84F6001B0404031374F40F19
S31570002AE0635BF608A30F87FE1B5848007D17E3113A
S31570002AF008FE014593F52A000149130B0002635243
S31570002B0090040546BA87199E83C617003B0AF600DD
S31570002B108507FDFA634D9A0C9B84050081CD93F46D
S31570002B201A002A89638F0410BA89130B0003014AAD
S31570002B30814411A893FA1A0063840A14130B0002D5
S31570002B402A89BA89014A3B0A3A419B0A1A002285A8
S31570002B503B8A3A018509EFF0BFE003C4090065F8C6
S31570002B60E35690F426847D345A85EFF07FDF65FC5A
S31570002B703B0A9A0025BF7D1713840703230087003D
S31570002B801B584800E31608F4014593F52A000149DD
S31570002B90130B0002E34790F66DB7930700032310FB
S31570002BA0F1006358D00085476398F606937727003F
S31570002BB0C5C713050003EFF0BFDA8544D5BD93078B
S31570002BC0D0027917A38FF9FEBA891304D00201498E
S31570002BD0130B0002014A85BF63480506A30F010067
S31570002BE0014911B5130B0002014A31FCC1B53B8A8C
S31570002BF044412A89BA8949BD9307D002A38FF9FE49
S31570002C0079171304D002E34E90EE7DBF29CC4A8526
S31570002C104E87D2842A8935B7937727001B84F6FFAF
S31570002C201309000395CF93FA1A0063910A047D3451
S31570002C304A85EFF0FFD265FC13050003EFF05FD213
S31570002C4085BD130B0003F5BD3B08A040A30F010023
S31570002C5059BB4A854E8775B593741700B9D8E9BFC5
S31570002C6013090002C9B7D284014ADDBD13050003FA
S31570002C70EFF01FCF7D344A85EFF09FCE65FC0DBD1A
S31570002C802A89130B000275BD014AE31E04EA39BD99
S31570002C90411122E02A841375F50F06E4EFF05FCC3C
S31570002CA0A26022850264410182803171A2F8CEEC65
S31570002CB0D6E486FCA6F4CAF0D2E8DAE05EFC62F8E6
S31570002CC066F46AF06EEC2EE532E936ED3AF13EF5D1
S31570002CD042F946FDAA8A03450500930981084EE428
S31570002CE001445DCD130A5002130BD0021309000381
S31570002CF0A54411A8EFF0DFC60524568C03451C00C9
S31570002D00930A1C0051CDAA87E31645FF03C51A0026
S31570002D1041C9138C1A006303F508014763076507F9
S31570002D20631C250703451C0013672700050CE30B7E
S31570002D3025FF894A1B0605FD9377F60F814B63E3E2
S31570002D40F40203451C009B972B00BB8777019B976A
S31570002D501700BB0BF6001B0605FD9377F60F050CE7
S31570002D60E3F1F4FE93073007630BF50C1B0585FA48
S31570002D701375F50F93070002E3E2A7F89386816B4C
S31570002D800A0536951C41B697828703C52A00138CAF
S31570002D902A000547E30825F9814A69BFE28A99BF87
S31570002DA0E67022854674A6740679E669466AA66A4E
S31570002DB0066BE27B427CA27C027DE26D2961828099
S31570002DC003A5090093071006DE860146C145EFF09C
S31570002DD05FBEA109299C1DB703A5090093071006BC
S31570002DE0DE860146A945EFF0DFBCA109299C39B7FB
S31570002DF003A5090093071006DE860546A945EFF080
S31570002E005FBBA109299CDDBD03CD0900A1096384BF
S31570002E100B0A63010D108547639DFB0E639D0A14B3
S31570002E20937A170063850A1A6A85EFF07FB33B04BD
S31570002E305401E9B503A509009307100471B783BC63
S31570002E400900A10963860C0A03C50C00638E0B0A80
S31570002E50630705148545E687BB85954103C617004C
S31570002E603B8DF50085077DFA63407D07937B1700E0
S31570002E7063860A0E63990B10014D930D000303C50B
S31570002E800C00630C0512052D3B0D9D41BB0A9D017F
S31570002E90EFF01FAD03C51C00850C6DF9E35970F991
S31570002EA0DE8CFD3C6E85EFF0BFABE39C0CFEBB8603
S31570002EB07A01359CA1B5E3030DE46A85854AEFF086
S31570002EC03FAA3B0454011DBD3B8DAB41930D0003DE
S31570002ED063940A00930D0002058B61E7EA8B635CCD
S31570002EE0A00FFD3B6E85EFF0BFA7E39C0BFE41BFC5
S31570002EF0973C0000938C0C3BE39E0BF4014D930DB5
S31570002F0000021305800241B7014D930D000225FDA5
S31570002F10F5B3FD3B930C000363840A06937A17009E
S31570002F20DE8D63980A08FD3D6685EFF07FA3E39C0E
S31570002F300DFE63070D089B8A1B00814B6A85EFF0B7
S31570002F403FA2E3860BEE5E8D7D3D6685EFF05FA159
S31570002F50E31C0DFEBB867A01359C4DB363850B066B
S31570002F6003C50C00014D814B930D0002E31D05F066
S31570002F703B04540161B3937A1700E3800AF46DB58C
S31570002F80930C000261BF03C50C00930D0003014D45
S31570002F90814B814AE31905EE3B04540185B35E8D7E
S31570002FA035B703C50C00EA8B014DE31E05EC814A6B
S31570002FB0F5B5E3150DF8814A79B73B04A4013DBB1D
S31570002FC03B848B0025BB014D930D00024DBD814B9B
S31570002FD0930C00028DB7014D5DB5011126E406EC28
S31570002FE022E84AE0AA84034505001DC5138414002F
S31570002FF0BB0490403B898400EFF09F960345040024
S3157000300005046DF92945EFF0BF95E2604264A2644C
S315700030104A850269056182800149EDB73747101A02
S315700030201C433335A000F99BC98F81271CC382804E
S31570003030B747101A8843058982803747101A1C4390
S315700030400D891B151500E59BC98F81271CC38280CE
S31570003050B747101A88431B5515000D89828037476C
S31570003060101A1C433335A0001B153500DD9BC98F24
S3157000307081271CC38280B747101A88431B553500B9
S31570003080058982803747101A1C433335A0001B15FB
S315700030904500BD9BC98F81271CC38280B747101A14
S315700030A088431B554500058982803747101A1C4393
S315700030B03335A0001B15550093F7F7FDC98F81278F
S315700030C01CC38280B747101A88431B555500058963
S315700030D082803747101A1C433335A0001B156500D4
S315700030E093F7F7FBC98F81271CC38280B747101AE5
S315700030F088431B556500058982800D89B747101A6C
S31570003100C8C38280B747101AC8430D898280374773
S31570003110101A1C473335A000F99BC98F81271CC72D
S315700031208280B747101A8847058982803747101AF8
S315700031301C470D891B151500E59BC98F81271CC778
S315700031408280B747101A88471B5515000D898280F3
S315700031503747101A1C473335A0001B153500DD9B09
S31570003160C98F81271CC78280B747101A88471B559D
S315700031703500058982803747101A1C473335A00001
S315700031801B154500BD9BC98F81271CC78280B74719
S31570003190101A88471B554500058982803747101AD3
S315700031A01C473335A0001B15550093F7F7FDC98FE3
S315700031B081271CC78280B747101A88471B55550050
S315700031C0058982803747101A1C473335A0001B15B6
S315700031D0650093F7F7FBC98F81271CC78280B747B5
S315700031E0101A88471B556500058982800D89B74777
S315700031F0101AC8C78280B747101AC8470D898280CF
S315700032003747101A1C4B3335A000F99BC98F81279D
S315700032101CCB8280B747101A884B05898280374746
S31570003220101A1C4B0D891B151500E59BC98F81273C
S315700032301CCB8280B747101A884B1B5515000D8919
S3157000324082803747101A1C4B3335A0001B1535008A
S31570003250DD9BC98F81271CCB8280B747101A884B9C
S315700032601B553500058982803747101A1C4B33353C
S31570003270A0001B154500BD9BC98F81271CCB828082
S31570003280B747101A884B1B5545000589828037470A
S31570003290101A1C4B3335A0001B15550093F7F7FD1C
S315700032A0C98F81271CCB8280B747101A884B1B5554
S315700032B05500058982803747101A1C4B3335A0009C
S315700032C01B15650093F7F7FBC98F81271CCB82808E
S315700032D0B747101A884B1B556500058982801D8972
S315700032E0B747101AC8CB8280B747101AC84B1D89CA
S315700032F082803747101A1C4F3335A000F99BC98F4F
S3157000330081271CCF8280B747101A884F0589828023
S315700033103747101A1C4F0D891B151500E59BC98F71
S3157000332081271CCF8280B747101A884F1B5515000E
S315700033300D8982803747101A1C4F3335A0001B1534
S315700033403500DD9BC98F81271CCF8280B747101A45
S31570003350884F1B553500058982803747101A1C4FD8
S315700033603335A0001B154500BD9BC98F81271CCF27
S315700033708280B747101A884F1B5545000589828091
S315700033803747101A1C4F3335A0001B15550093F79D
S31570003390F7FDC98F81271CCF8280B747101A884FD7
S315700033A01B555500058982803747101A1C4F3335D7
S315700033B0A0001B15650093F7F7FBC98F81271CCFFB
S315700033C08280B747101A884F1B5565000589828021
S315700033D01D89B747101AC8CF8280B747101AC84FD1
S315700033E01D8982803747101A1C533335A000F99B0C
S315700033F0C98F81271CD38280B747101A88530589D5
S3157000340082803747101A1C530D891B151500E59BD2
S31570003410C98F81271CD38280B747101A88531B55D2
S3157000342015000D8982803747101A1C533335A0005A
S315700034301B153500DD9BC98F81271CD38280B7474A
S31570003440101A88531B553500058982803747101A24
S315700034501C533335A0001B154500BD9BC98F8127B2
S315700034601CD38280B747101A88531B5545000589AF
S3157000347082803747101A1C533335A0001B15550030
S3157000348093F7F7FDC98F81271CD38280B747101A2F
S3157000349088531B555500058982803747101A1C536F
S315700034A03335A0001B15650093F7F7FBC98F81278D
S315700034B01CD38280B747101A88531B55650005893F
S315700034C082801D89B747101AC8D38280B747101AF1
S315700034D0C8531D8982803747101A1C573335A00090
S315700034E0F99BC98F81271CD78280B747101A8857D6
S315700034F0058982803747101A1C570D891B151500D0
S31570003500E59BC98F81271CD78280B747101A8857C9
S315700035101B5515000D8982803747101A1C57333595
S31570003520A0001B153500DD9BC98F81271CD78280B3
S31570003530B747101A88571B5535000589828037475B
S31570003540101A1C573335A0001B154500BD9BC98F3B
S3157000355081271CD78280B747101A88571B5545009C
S31570003560058982803747101A1C573335A0001B1502
S31570003570550093F7F7FDC98F81271CD78280B7470F
S31570003580101A88571B555500058982803747101ABF
S315700035901C573335A0001B15650093F7F7FBC98FD1
S315700035A081271CD78280B747101A88571B5565002C
S315700035B0058982801D89B747101AC8D78280B74798
S315700035C0101AC8571D8982803747101A1C5B33350D
S315700035D0A000F99BC98F81271CDB8280B747101A20
S315700035E0885B058982803747101A1C5B0D891B150D
S315700035F01500E59BC98F81271CDB8280B747101A9F
S31570003600885B1B5515000D8982803747101A1C5B25
S315700036103335A0001B153500DD9BC98F81271CDB58
S315700036208280B747101A885B1B55350005898280E2
S315700036303747101A1C5B3335A0001B154500BD9B20
S31570003640C98F81271CDB8280B747101A885B1B5590
S315700036504500058982803747101A1C5B3335A000F8
S315700036601B15550093F7F7FDC98F81271CDB8280E8
S31570003670B747101A885B1B555500058982803747F6
S31570003680101A1C5B3335A0001B15650093F7F7FB0A
S31570003690C98F81271CDB8280B747101A885B1B5540
S315700036A06500058982801D89B747101AC8DB82803C
S315700036B0B747101AC85B1D8982803747101A1C5F7E
S315700036C03335A000F99BC98F81271CDF8280B747ED
S315700036D0101A885F058982803747101A1C5F0D891A
S315700036E01B151500E59BC98F81271CDF8280B747A4
S315700036F0101A885F1B5515000D8982803747101A7E
S315700037001C5F3335A0001B153500DD9BC98F8127E3
S315700037101CDF8280B747101A885F1B5535000589F4
S3157000372082803747101A1C5F3335A0001B15450081
S31570003730BD9BC98F81271CDF8280B747101A885FAF
S315700037401B554500058982803747101A1C5F333533
S31570003750A0001B15550093F7F7FDC98F81271CDF55
S315700037608280B747101A885F1B555500058982807D
S315700037703747101A1C5F3335A0001B15650093F789
S31570003780F7FBC98F81271CDF8280B747101A885FC5
S315700037901B556500058982801D89B747101AC8DFD9
S315700037A08280B747101AC85F1D8982803747101A02
S315700037B03C433335A000F99BC98F81273CC3828077
S315700037C0B747101AA843058982803747101A3C43B9
S315700037D00D891B151500E59BC98F81273CC3828017
S315700037E0B747101AA8431B5515000D8982803747B5
S315700037F0101A3C433335A0001B153500DD9BC98F6D
S3157000380081273CC38280B747101AA8431B553500E1
S31570003810058982803747101A3C433335A0001B1543
S315700038204500BD9BC98F81273CC38280B747101A5C
S31570003830A8431B554500058982803747101A3C43BB
S315700038403335A0001B15550093F7F7FDC98F8127F7
S315700038503CC38280B747101AA8431B55550005898B
S3157000386082803747101A3C433335A0001B1565001C
S3157000387093F7F7FBC98F81273CC38280B747101A2D
S31570003880A8431B556500058982801D89B747101AA4
S31570003890E8C38280B747101AE8431D89828037478C
S315700038A0101A3C473335A000F99BC98F81273CC756
S315700038B08280B747101AA847058982803747101A41
S315700038C03C470D891B151500E59BC98F81273CC7A1
S315700038D08280B747101AA8471B5515000D8982803C
S315700038E03747101A3C473335A0001B153500DD9B52
S315700038F0C98F81273CC78280B747101AA8471B55C6
S315700039003500058982803747101A3C473335A00049
S315700039101B154500BD9BC98F81273CC78280B74761
S31570003920101AA8471B554500058982803747101A1B
S315700039303C473335A0001B15550093F7F7FDC98F2B
S3157000394081273CC78280B747101AA8471B55550078
S31570003950058982803747101A3C473335A0001B15FE
S31570003960650093F7F7FBC98F81273CC78280B747FD
S31570003970101AA8471B556500058982801D89B747AF
S31570003980101AE8C78280B747101AE8471D898280E7
S315700039903747101A3C4B3335A000F99BC98F8127E6
S315700039A03CCB8280B747101AA84B0589828037476F
S315700039B0101A3C4B0D891B151500E59BC98F812785
S315700039C03CCB8280B747101AA84B1B5515000D8942
S315700039D082803747101A3C4B3335A0001B153500D3
S315700039E0DD9BC98F81273CCB8280B747101AA84BC5
S315700039F01B553500058982803747101A3C4B333585
S31570003A00A0001B154500BD9BC98F81273CCB8280CA
S31570003A10B747101AA84B1B55450005898280374752
S31570003A20101A3C4B3335A0001B15550093F7F7FD64
S31570003A30C98F81273CCB8280B747101AA84B1B557C
S31570003A405500058982803747101A3C4B3335A000E4
S31570003A501B15650093F7F7FBC98F81273CCB8280D6
S31570003A60B747101AA84B1B556500058982801D89BA
S31570003A70B747101AE8CB8280B747101AE84B1D89F2
S31570003A8082803747101A3C4F3335A000F99BC98F97
S31570003A9081273CCF8280B747101AA84F058982804C
S31570003AA03747101A3C4F0D891B151500E59BC98FBA
S31570003AB081273CCF8280B747101AA84F1B55150037
S31570003AC00D8982803747101A3C4F3335A0001B157D
S31570003AD03500DD9BC98F81273CCF8280B747101A8E
S31570003AE0A84F1B553500058982803747101A3C4F01
S31570003AF03335A0001B154500BD9BC98F81273CCF70
S31570003B008280B747101AA84F1B55450005898280D9
S31570003B103747101A3C4F3335A0001B15550093F7E5
S31570003B20F7FDC98F81273CCF8280B747101AA84FFF
S31570003B301B555500058982803747101A3C4F33351F
S31570003B40A0001B15650093F7F7FBC98F81273CCF43
S31570003B508280B747101AA84F1B5565000589828069
S31570003B601D89B747101AE8CF8280B747101AE84FF9
S31570003B701D8982803747101A3C533335A000F99B54
S31570003B80C98F81273CD38280B747101AA8530589FD
S31570003B9082803747101A3C530D891B151500E59B1B
S31570003BA0C98F81273CD38280B747101AA8531B55FB
S31570003BB015000D8982803747101A3C533335A000A3
S31570003BC01B153500DD9BC98F81273CD38280B74793
S31570003BD0101AA8531B553500058982803747101A6D
S31570003BE03C533335A0001B154500BD9BC98F8127FB
S31570003BF03CD38280B747101AA8531B5545000589D8
S31570003C0082803747101A3C533335A0001B15550078
S31570003C1093F7F7FDC98F81273CD38280B747101A77
S31570003C20A8531B555500058982803747101A3C5397
S31570003C303335A0001B15650093F7F7FBC98F8127F5
S31570003C403CD38280B747101AA8531B556500058967
S31570003C5082801D89B747101AE8D38280B747101A39
S31570003C60E8531D8982803747101A3C573335A000B8
S31570003C70F99BC98F81273CD78280B747101AA857FE
S31570003C80058982803747101A3C570D891B15150018
S31570003C90E59BC98F81273CD78280B747101AA857F2
S31570003CA01B5515000D8982803747101A3C573335DE
S31570003CB0A0001B153500DD9BC98F81273CD78280FC
S31570003CC0B747101AA8571B553500058982803747A4
S31570003CD0101A3C573335A0001B154500BD9BC98F84
S31570003CE081273CD78280B747101AA8571B554500C5
S31570003CF0058982803747101A3C573335A0001B154B
S31570003D00550093F7F7FDC98F81273CD78280B74757
S31570003D10101AA8571B555500058982803747101A07
S31570003D203C573335A0001B15650093F7F7FBC98F19
S31570003D3081273CD78280B747101AA8571B55650054
S31570003D40058982801D89B747101AE8D78280B747E0
S31570003D50101AE8571D8982803747101A3C5B333535
S31570003D60A000F99BC98F81273CDB8280B747101A68
S31570003D70A85B058982803747101A3C5B0D891B1535
S31570003D801500E59BC98F81273CDB8280B747101AE7
S31570003D90A85B1B5515000D8982803747101A3C5B4E
S31570003DA03335A0001B153500DD9BC98F81273CDBA1
S31570003DB08280B747101AA85B1B553500058982802B
S31570003DC03747101A3C5B3335A0001B154500BD9B69
S31570003DD0C98F81273CDB8280B747101AA85B1B55B9
S31570003DE04500058982803747101A3C5B3335A00041
S31570003DF01B15550093F7F7FDC98F81273CDB828031
S31570003E00B747101AA85B1B5555000589828037473E
S31570003E10101A3C5B3335A0001B15650093F7F7FB52
S31570003E20C98F81273CDB8280B747101AA85B1B5568
S31570003E306500058982801D89B747101AE8DB828084
S31570003E40B747101AE85B1D8982803747101A3C5FA6
S31570003E503335A000F99BC98F81273CDF8280B74735
S31570003E60101AA85F058982803747101A3C5F0D8942
S31570003E701B151500E59BC98F81273CDF8280B747EC
S31570003E80101AA85F1B5515000D8982803747101AC6
S31570003E903C5F3335A0001B153500DD9BC98F81272C
S31570003EA03CDF8280B747101AA85F1B55350005891D
S31570003EB082803747101A3C5F3335A0001B154500CA
S31570003EC0BD9BC98F81273CDF8280B747101AA85FD8
S31570003ED01B554500058982803747101A3C5F33357C
S31570003EE0A0001B15550093F7F7FDC98F81273CDF9E
S31570003EF08280B747101AA85F1B55550005898280C6
S31570003F003747101A3C5F3335A0001B15650093F7D1
S31570003F10F7FBC98F81273CDF8280B747101AA85FED
S31570003F201B556500058982801D89B747101AE8DF21
S31570003F308280B747101AE85F1D8982803747101A4A
S31570003F40832707083335A000F99BC98F8127232063
S31570003F50F7088280B747101A03A50708058982807B
S31570003F603747101A832707080D891B151500E59B1F
S31570003F70C98F81272320F7088280B747101A03A5B7
S31570003F8007081B5515000D8982803747101A83273D
S31570003F9007083335A0001B153500DD9BC98F8127B7
S31570003FA02320F7088280B747101A03A507081B5508
S31570003FB03500058982803747101A832707083335FD
S31570003FC0A0001B154500BD9BC98F81272320F708CC
S31570003FD08280B747101A03A507081B554500058947
S31570003FE082803747101A832707083335A0001B15C0
S31570003FF0550093F7F7FDC98F81272320F708828034
S31570004000B747101A03A507081B5555000589828006
S315700040103747101A832707083335A0001B1565002C
S3157000402093F7F7FBC98F81272320F7088280B7475C
S31570004030101A03A507081B556500058982801D891E
S31570004040B747101A23A2A7088280B747101A03A58C
S3157000405047081D8982803747101A832787083335AA
S31570004060A000F99BC98F81272324F7088280B74760
S31570004070101A03A58708058982803747101A832787
S3157000408087080D891B151500E59BC98F8127232489
S31570004090F7088280B747101A03A587081B551500C5
S315700040A00D8982803747101A832787083335A00019
S315700040B01B153500DD9BC98F81272324F708828065
S315700040C0B747101A03A587081B55350005898280E6
S315700040D03747101A832787083335A0001B1545000C
S315700040E0BD9BC98F81272324F7088280B747101A92
S315700040F003A587081B554500058982803747101A26
S31570004100832787083335A0001B15550093F7F7FDF5
S31570004110C98F81272324F7088280B747101A03A511
S3157000412087081B555500058982803747101A8327E3
S3157000413087083335A0001B15650093F7F7FBC98F09
S3157000414081272324F7088280B747101A03A58708AA
S315700041501B556500058982801D89B747101A23A6ED
S31570004160A7088280B747101A03A5C7081D898280E1
S315700041703747101A832707093335A000F99BC98F73
S3157000418081272328F7088280B747101A03A50709E5
S31570004190058982803747101A832707090D891B15F1
S315700041A01500E59BC98F81272328F7088280B747BA
S315700041B0101A03A507091B5515000D89828037470C
S315700041C0101A832707093335A0001B153500DD9BB0
S315700041D0C98F81272328F7088280B747101A03A54D
S315700041E007091B553500058982803747101A8327C2
S315700041F007093335A0001B154500BD9BC98F812764
S315700042002328F7088280B747101A03A507091B559C
S315700042104500058982803747101A83270709333589
S31570004220A0001B15550093F7F7FDC98F812723282A
S31570004230F7088280B747101A03A507091B55550062
S31570004240058982803747101A832707093335A000FE
S315700042501B15650093F7F7FBC98F81272328F7088D
S315700042608280B747101A03A507091B556500058993
S3157000427082801D89B747101A23AAA7088280B7477C
S31570004280101A03A547091D8982803747101A83279C
S3157000429087093335A000F99BC98F8127232CF7082E
S315700042A08280B747101A03A5870905898280374728
S315700042B0101A832787090D891B151500E59BC98F71
S315700042C08127232CF7088280B747101A03A5870920
S315700042D01B5515000D8982803747101A8327870969
S315700042E03335A0001B153500DD9BC98F8127232C24
S315700042F0F7088280B747101A03A587091B55350042
S31570004300058982803747101A832787093335A000BD
S315700043101B154500BD9BC98F8127232CF70882800A
S31570004320B747101A03A587091B5545000589828072
S315700043303747101A832787093335A0001B15550098
S3157000434093F7F7FDC98F8127232CF7088280B7472B
S31570004350101A03A587091B555500058982803747B2
S31570004360101A832787093335A0001B15650093F74C
S31570004370F7FBC98F8127232CF7088280B747101A5D
S3157000438003A587091B556500058982801D89B74776
S31570004390101A23AEA7088280B747101A03A5C7095B
S315700043A01D8982803747101A8327070A3335A00084
S315700043B0F99BC98F81272320F70A8280B747101A85
S315700043C003A5070A058982803747101A8327070ACB
S315700043D00D891B151500E59BC98F81272320F70AC8
S315700043E08280B747101A03A5070A1B5515000D8959
S315700043F082803747101A8327070A3335A0001B15AA
S315700044003500DD9BC98F81272320F70A8280B74745
S31570004410101A03A5070A1B55350005898280374790
S31570004420101A8327070A3335A0001B154500BD9B5C
S31570004430C98F81272320F70A8280B747101A03A5F0
S31570004440070A1B554500058982803747101A83274E
S31570004450070A3335A0001B15550093F7F7FDC98F72
S3157000446081272320F70A8280B747101A03A5070A07
S315700044701B555500058982803747101A8327070A0E
S315700044803335A0001B15650093F7F7FBC98F81279D
S315700044902320F70A8280B747101A03A5070A1B550F
S315700044A06500058982801D89B747101A23A2A70A5D
S315700044B08280B747101A03A5470A1D89828037473D
S315700044C0101A8327870A3335A000F99BC98F812775
S315700044D02324F70A8280B747101A03A5870A05892D
S315700044E082803747101A8327870A0D891B15150096
S315700044F0E59BC98F81272324F70A8280B747101A54
S3157000450003A5870A1B5515000D8982803747101A37
S315700045108327870A3335A0001B153500DD9BC98FAD
S3157000452081272324F70A8280B747101A03A5870AC2
S315700045301B553500058982803747101A8327870AED
S315700045403335A0001B154500BD9BC98F81272324D9
S31570004550F70A8280B747101A03A5870A1B554500CC
S31570004560058982803747101A8327870A3335A0005A
S315700045701B15550093F7F7FDC98F81272324F70A7A
S315700045808280B747101A03A5870A1B5555000589FF
S3157000459082803747101A8327870A3335A0001B1588
S315700045A0650093F7F7FBC98F81272324F70A82806A
S315700045B0B747101A03A5870A1B55650005898280BF
S315700045C01D89B747101A23A6A70A8280B747101A03
S315700045D003A5C70A1D8982803747101A8327070BE0
S315700045E03335A000F99BC98F81272328F70A82806B
S315700045F0B747101A03A5070B058982803747101A2B
S315700046008327070B0D891B151500E59BC98F81271D
S315700046102328F70A8280B747101A03A5070B1B5584
S3157000462015000D8982803747101A8327070B33359B
S31570004630A0001B153500DD9BC98F81272328F70A3B
S315700046408280B747101A03A5070B1B5535000589DD
S3157000465082803747101A8327070B3335A0001B1546
S315700046604500BD9BC98F81272328F70A8280B747EB
S31570004670101A03A5070B1B5545000589828037471D
S31570004680101A8327070B3335A0001B15550093F7B7
S31570004690F7FDC98F81272328F70A8280B747101A3A
S315700046A003A5070B1B555500058982803747101ADD
S315700046B08327070B3335A0001B15650093F7F7FBAF
S315700046C0C98F81272328F70A8280B747101A03A556
S315700046D0070B1B556500058982801D89B747101A1F
S315700046E023AAA70A8280B747101A03A5470B1D890C
S315700046F082803747101A8327870B3335A000F99BC2
S31570004700C98F8127232CF70A8280B747101A03A511
S31570004710870B058982803747101A8327870B0D8987
S315700047201B151500E59BC98F8127232CF70A8280FC
S31570004730B747101A03A5870B1B5515000D89828084
S315700047403747101A8327870B3335A0001B153500A2
S31570004750DD9BC98F8127232CF70A8280B747101AF1
S3157000476003A5870B1B553500058982803747101ABC
S315700047708327870B3335A0001B154500BD9BC98F5A
S315700047808127232CF70A8280B747101A03A5870B57
S315700047901B554500058982803747101A8327870B7A
S315700047A03335A0001B15550093F7F7FDC98F812788
S315700047B0232CF70A8280B747101A03A5870B1B555F
S315700047C05500058982803747101A8327870B333542
S315700047D0A0001B15650093F7F7FBC98F8127232C63
S315700047E0F70A8280B747101A03A5870B1B55650019
S315700047F0058982801D89B747101A23AEA70A828061
S31570004800B747101A03A5C70B1D8982803747101A40
S315700048108327070C3335A000F99BC98F8127232086
S31570004820F70C8280B747101A03A5070C058982809A
S315700048303747101A8327070C0D891B151500E59B42
S31570004840C98F81272320F70C8280B747101A03A5DA
S31570004850070C1B5515000D8982803747101A832760
S31570004860070C3335A0001B153500DD9BC98F8127DA
S315700048702320F70C8280B747101A03A5070C1B5527
S315700048803500058982803747101A8327070C333520
S31570004890A0001B154500BD9BC98F81272320F70CEF
S315700048A08280B747101A03A5070C1B55450005896A
S315700048B082803747101A8327070C3335A0001B15E3
S315700048C0550093F7F7FDC98F81272320F70C828057
S315700048D0B747101A03A5070C1B555500058982802A
S315700048E03747101A8327070C3335A0001B15650050
S315700048F093F7F7FBC98F81272320F70C8280B74780
S31570004900101A03A5070C1B556500058982801D8941
S31570004910B747101A23A2A70C8280B747101A03A5AF
S31570004920470C1D8982803747101A8327870C3335C9
S31570004930A000F99BC98F81272324F70C8280B74783
S31570004940101A03A5870C058982803747101A8327AA
S31570004950870C0D891B151500E59BC98F81272324AC
S31570004960F70C8280B747101A03A5870C1B551500E4
S315700049700D8982803747101A8327870C3335A0003C
S315700049801B153500DD9BC98F81272324F70C828088
S31570004990B747101A03A5870C1B5535000589828009
S315700049A03747101A8327870C3335A0001B1545002F
S315700049B0BD9BC98F81272324F70C8280B747101AB5
S315700049C003A5870C1B554500058982803747101A49
S315700049D08327870C3335A0001B15550093F7F7FD19
S315700049E0C98F81272324F70C8280B747101A03A535
S315700049F0870C1B555500058982803747101A832707
S31570004A00870C3335A0001B15650093F7F7FBC98F2C
S31570004A1081272324F70C8280B747101A03A5870CC9
S31570004A201B556500058982801D89B747101A23A614
S31570004A30A70C8280B747101A03A5C70C1D89828000
S31570004A403747101A8327070D3335A000F99BC98F96
S31570004A5081272328F70C8280B747101A03A5070D04
S31570004A60058982803747101A8327070D0D891B1514
S31570004A701500E59BC98F81272328F70C8280B747DD
S31570004A80101A03A5070D1B5515000D89828037472F
S31570004A90101A8327070D3335A0001B153500DD9BD3
S31570004AA0C98F81272328F70C8280B747101A03A570
S31570004AB0070D1B553500058982803747101A8327E5
S31570004AC0070D3335A0001B154500BD9BC98F812787
S31570004AD02328F70C8280B747101A03A5070D1B55BC
S31570004AE04500058982803747101A8327070D3335AD
S31570004AF0A0001B15550093F7F7FDC98F8127232852
S31570004B00F70C8280B747101A03A5070D1B55550081
S31570004B10058982803747101A8327070D3335A00021
S31570004B201B15650093F7F7FBC98F81272328F70CB0
S31570004B308280B747101A03A5070D1B5565000589B6
S31570004B4082801D89B747101A23AAA70C8280B7479F
S31570004B50101A03A5470D1D8982803747101A8327BF
S31570004B60870D3335A000F99BC98F8127232CF70C4D
S31570004B708280B747101A03A5870D0589828037474B
S31570004B80101A8327870D0D891B151500E59BC98F94
S31570004B908127232CF70C8280B747101A03A5870D3F
S31570004BA01B5515000D8982803747101A8327870D8C
S31570004BB03335A0001B153500DD9BC98F8127232C4B
S31570004BC0F70C8280B747101A03A5870D1B55350061
S31570004BD0058982803747101A8327870D3335A000E1
S31570004BE01B154500BD9BC98F8127232CF70C82802E
S31570004BF0B747101A03A5870D1B5545000589828096
S31570004C003747101A8327870D3335A0001B155500BB
S31570004C1093F7F7FDC98F8127232CF70C8280B7474E
S31570004C20101A03A5870D1B555500058982803747D5
S31570004C30101A8327870D3335A0001B15650093F76F
S31570004C40F7FBC98F8127232CF70C8280B747101A80
S31570004C5003A5870D1B556500058982801D89B74799
S31570004C60101A23AEA70C8280B747101A03A5C70D7A
S31570004C701D8982803747101A8327070E3335A000A7
S31570004C80F99BC98F81272320F70E8280B747101AA8
S31570004C9003A5070E058982803747101A8327070EEA
S31570004CA00D891B151500E59BC98F81272320F70EEB
S31570004CB08280B747101A03A5070E1B5515000D897C
S31570004CC082803747101A8327070E3335A0001B15CD
S31570004CD03500DD9BC98F81272320F70E8280B74769
S31570004CE0101A03A5070E1B553500058982803747B4
S31570004CF0101A8327070E3335A0001B154500BD9B80
S31570004D00C98F81272320F70E8280B747101A03A513
S31570004D10070E1B554500058982803747101A832771
S31570004D20070E3335A0001B15550093F7F7FDC98F95
S31570004D3081272320F70E8280B747101A03A5070E26
S31570004D401B555500058982803747101A8327070E31
S31570004D503335A0001B15650093F7F7FBC98F8127C4
S31570004D602320F70E8280B747101A03A5070E1B552E
S31570004D706500058982801D89B747101A23A2A70E80
S31570004D808280B747101A03A5470E1D898280374760
S31570004D90101A8327870E3335A000F99BC98F812798
S31570004DA02324F70E8280B747101A03A5870E05894C
S31570004DB082803747101A8327870E0D891B151500B9
S31570004DC0E59BC98F81272324F70E8280B747101A77
S31570004DD003A5870E1B5515000D8982803747101A5B
S31570004DE08327870E3335A0001B153500DD9BC98FD1
S31570004DF081272324F70E8280B747101A03A5870EE2
S31570004E001B553500058982803747101A8327870E10
S31570004E103335A0001B154500BD9BC98F8127232400
S31570004E20F70E8280B747101A03A5870E1B554500EB
S31570004E30058982803747101A8327870E3335A0007D
S31570004E401B15550093F7F7FDC98F81272324F70E9D
S31570004E508280B747101A03A5870E1B555500058922
S31570004E6082803747101A8327870E3335A0001B15AB
S31570004E70650093F7F7FBC98F81272324F70E82808D
S31570004E80B747101A03A5870E1B55650005898280E2
S31570004E901D89B747101A23A6A70E8280B747101A26
S31570004EA003A5C70E1D8982803747101A83270727E7
S31570004EB03335A000F99BC98F81272328F726828076
S31570004EC0B747101A03A50727058982803747101A36
S31570004ED0832707270D891B151500E59BC98F812729
S31570004EE02328F7268280B747101A03A507271B5574
S31570004EF015000D8982803747101A832707273335A7
S31570004F00A0001B153500DD9BC98F81272328F72646
S31570004F108280B747101A03A507271B5535000589E8
S31570004F2082803747101A832707273335A0001B1551
S31570004F304500BD9BC98F81272328F7268280B747F6
S31570004F40101A03A507271B55450005898280374728
S31570004F50101A832707273335A0001B15550093F7C2
S31570004F60F7FDC98F81272328F7268280B747101A45
S31570004F7003A507271B555500058982803747101AE8
S31570004F80832707273335A0001B15650093F7F7FBBA
S31570004F90C98F81272328F7268280B747101A03A561
S31570004FA007271B556500058982800589B747101A42
S31570004FB023AAA7268280B747101A03A54727058913
S31570004FC082803747101A832787273335A000F99BCD
S31570004FD0C98F8127232CF7268280B747101A03A51D
S31570004FE08727058982803747101A832787270D8977
S31570004FF01B151500E59BC98F8127232CF726828008
S31570005000B747101A03A587271B5515000D8982808F
S315700050103747101A832787273335A0001B153500AD
S31570005020DD9BC98F8127232CF7268280B747101AFC
S3157000503003A587271B553500058982803747101AC7
S31570005040832787273335A0001B154500BD9BC98F65
S315700050508127232CF7268280B747101A03A5872746
S315700050601B554500058982803747101A8327872785
S315700050703335A0001B15550093F7F7FDC98F8127AF
S31570005080232CF7268280B747101A03A587271B554E
S315700050905500058982803747101A8327872733354D
S315700050A0A0001B15650093F7F7FBC98F8127232C8A
S315700050B0F7268280B747101A03A587271B55650008
S315700050C0058982800589B747101A23AEA726828084
S315700050D0B747101A03A5C727058982803747101A64
S315700050E0832707283335A000F99BC98F8127232092
S315700050F0F7288280B747101A03A50728058982808A
S315700051003747101A832707280D891B151500E59B4D
S31570005110C98F81272320F7288280B747101A03A5E5
S3157000512007281B5515000D8982803747101A83276B
S3157000513007283335A0001B153500DD9BC98F8127E5
S315700051402320F7288280B747101A03A507281B5516
S315700051503500058982803747101A8327072833352B
S31570005160A0001B154500BD9BC98F81272320F728FA
S315700051708280B747101A03A507281B554500058975
S3157000518082803747101A832707283335A0001B15EE
S31570005190550093F7F7FDC98F81272320F728828062
S315700051A0B747101A03A507281B5555000589828035
S315700051B03747101A832707283335A0001B1565005B
S315700051C093F7F7FBC98F81272320F7288280B7478B
S315700051D0101A03A507281B55650005898280058965
S315700051E0B747101A23A2A7288280B747101A03A5BB
S315700051F04728058982803747101A832787283335D1
S31570005200A000F99BC98F81272324F7288280B7478E
S31570005210101A03A58728058982803747101A8327B5
S3157000522087280D891B151500E59BC98F81272324B7
S31570005230F7288280B747101A03A587281B551500D3
S315700052400D8982803747101A832787283335A00047
S315700052501B153500DD9BC98F81272324F728828093
S31570005260B747101A03A587281B5535000589828014
S315700052703747101A832787283335A0001B1545003A
S31570005280BD9BC98F81272324F7288280B747101AC0
S3157000529003A587281B554500058982803747101A54
S315700052A0832787283335A0001B15550093F7F7FD24
S315700052B0C98F81272324F7288280B747101A03A540
S315700052C087281B555500058982803747101A832712
S315700052D087283335A0001B15650093F7F7FBC98F38
S315700052E081272324F7288280B747101A03A58728B9
S315700052F01B556500058982800589B747101A23A654
S31570005300A7288280B747101A03A5C7280589828007
S30D7000531001458280014582808F
S3157000531800010202030304050506070708080900C9
S3157000532800000000000000000000000000000000FF
S3157000533800000000000000000000000000000000EF
S31570005348FFFFFFFFFFFFFFFF0000000000000000E7
S309700053586F12833B9C
S315700053606AAFFFFF18AFFFFF72AFFFFF18AFFFFF07
S3157000537018AFFFFF18AFFFFF18AFFFFF7CAFFFFF3F
S3157000538018AFFFFF18AFFFFF00AFFFFF04B1FFFFBD
S3157000539018AFFFFF00AFFFFF24AFFFFF24AFFFFF83
S315700053A024AFFFFF24AFFFFF24AFFFFF24AFFFFF43
S315700053B024AFFFFF24AFFFFF24AFFFFF18AFFFFF3F
S315700053C018AFFFFF18AFFFFF18AFFFFF18AFFFFF53
S315700053D018AFFFFF18AFFFFF18AFFFFF18AFFFFF43
S315700053E018AFFFFF18AFFFFF18AFFFFF18AFFFFF33
S315700053F018AFFFFF18AFFFFF18AFFFFF18AFFFFF23
S3157000540018AFFFFF18AFFFFF18AFFFFF18AFFFFF12
S3157000541018AFFFFF18AFFFFF18AFFFFF18AFFFFF02
S3157000542018AFFFFF18AFFFFF18AFFFFF18AFFFFFF2
S3157000543018AFFFFF18AFFFFF18AFFFFF18AFFFFFE2
S3157000544018AFFFFF18AFFFFF18AFFFFF18AFFFFFD2
S3157000545018AFFFFF18AFFFFF18AFFFFF18AFFFFFC2
S315700054601AB1FFFF16B0FFFF18AFFFFF18AFFFFFAF
S3157000547018AFFFFF18AFFFFF18AFFFFF18AFFFFFA2
S3157000548018AFFFFF26B1FFFF18AFFFFF18AFFFFF82
